{
  "contractName": "EnhancedToken",
  "abi": [
    {
      "inputs": [
        {
          "internalType": "string",
          "name": "name",
          "type": "string"
        },
        {
          "internalType": "string",
          "name": "symbol",
          "type": "string"
        },
        {
          "internalType": "uint256",
          "name": "cap",
          "type": "uint256"
        },
        {
          "internalType": "uint256",
          "name": "initialSupply",
          "type": "uint256"
        }
      ],
      "stateMutability": "nonpayable",
      "type": "constructor"
    },
    {
      "inputs": [
        {
          "internalType": "uint256",
          "name": "increasedSupply",
          "type": "uint256"
        },
        {
          "internalType": "uint256",
          "name": "cap",
          "type": "uint256"
        }
      ],
      "name": "ERC20ExceededCap",
      "type": "error"
    },
    {
      "inputs": [
        {
          "internalType": "address",
          "name": "spender",
          "type": "address"
        },
        {
          "internalType": "uint256",
          "name": "allowance",
          "type": "uint256"
        },
        {
          "internalType": "uint256",
          "name": "needed",
          "type": "uint256"
        }
      ],
      "name": "ERC20InsufficientAllowance",
      "type": "error"
    },
    {
      "inputs": [
        {
          "internalType": "address",
          "name": "sender",
          "type": "address"
        },
        {
          "internalType": "uint256",
          "name": "balance",
          "type": "uint256"
        },
        {
          "internalType": "uint256",
          "name": "needed",
          "type": "uint256"
        }
      ],
      "name": "ERC20InsufficientBalance",
      "type": "error"
    },
    {
      "inputs": [
        {
          "internalType": "address",
          "name": "approver",
          "type": "address"
        }
      ],
      "name": "ERC20InvalidApprover",
      "type": "error"
    },
    {
      "inputs": [
        {
          "internalType": "uint256",
          "name": "cap",
          "type": "uint256"
        }
      ],
      "name": "ERC20InvalidCap",
      "type": "error"
    },
    {
      "inputs": [
        {
          "internalType": "address",
          "name": "receiver",
          "type": "address"
        }
      ],
      "name": "ERC20InvalidReceiver",
      "type": "error"
    },
    {
      "inputs": [
        {
          "internalType": "address",
          "name": "sender",
          "type": "address"
        }
      ],
      "name": "ERC20InvalidSender",
      "type": "error"
    },
    {
      "inputs": [
        {
          "internalType": "address",
          "name": "spender",
          "type": "address"
        }
      ],
      "name": "ERC20InvalidSpender",
      "type": "error"
    },
    {
      "inputs": [
        {
          "internalType": "address",
          "name": "owner",
          "type": "address"
        }
      ],
      "name": "OwnableInvalidOwner",
      "type": "error"
    },
    {
      "inputs": [
        {
          "internalType": "address",
          "name": "account",
          "type": "address"
        }
      ],
      "name": "OwnableUnauthorizedAccount",
      "type": "error"
    },
    {
      "anonymous": false,
      "inputs": [
        {
          "indexed": true,
          "internalType": "address",
          "name": "owner",
          "type": "address"
        },
        {
          "indexed": true,
          "internalType": "address",
          "name": "spender",
          "type": "address"
        },
        {
          "indexed": false,
          "internalType": "uint256",
          "name": "value",
          "type": "uint256"
        }
      ],
      "name": "Approval",
      "type": "event"
    },
    {
      "anonymous": false,
      "inputs": [
        {
          "indexed": true,
          "internalType": "address",
          "name": "account",
          "type": "address"
        },
        {
          "indexed": false,
          "internalType": "bool",
          "name": "blacklisted",
          "type": "bool"
        }
      ],
      "name": "BlacklistUpdated",
      "type": "event"
    },
    {
      "anonymous": false,
      "inputs": [
        {
          "indexed": true,
          "internalType": "address",
          "name": "previousOwner",
          "type": "address"
        },
        {
          "indexed": true,
          "internalType": "address",
          "name": "newOwner",
          "type": "address"
        }
      ],
      "name": "OwnershipTransferred",
      "type": "event"
    },
    {
      "anonymous": false,
      "inputs": [
        {
          "indexed": true,
          "internalType": "address",
          "name": "from",
          "type": "address"
        },
        {
          "indexed": true,
          "internalType": "address",
          "name": "to",
          "type": "address"
        },
        {
          "indexed": false,
          "internalType": "uint256",
          "name": "value",
          "type": "uint256"
        }
      ],
      "name": "Transfer",
      "type": "event"
    },
    {
      "inputs": [],
      "name": "TRANSFER_COOLDOWN",
      "outputs": [
        {
          "internalType": "uint256",
          "name": "",
          "type": "uint256"
        }
      ],
      "stateMutability": "view",
      "type": "function"
    },
    {
      "inputs": [
        {
          "internalType": "address",
          "name": "owner",
          "type": "address"
        },
        {
          "internalType": "address",
          "name": "spender",
          "type": "address"
        }
      ],
      "name": "allowance",
      "outputs": [
        {
          "internalType": "uint256",
          "name": "",
          "type": "uint256"
        }
      ],
      "stateMutability": "view",
      "type": "function"
    },
    {
      "inputs": [
        {
          "internalType": "address",
          "name": "spender",
          "type": "address"
        },
        {
          "internalType": "uint256",
          "name": "value",
          "type": "uint256"
        }
      ],
      "name": "approve",
      "outputs": [
        {
          "internalType": "bool",
          "name": "",
          "type": "bool"
        }
      ],
      "stateMutability": "nonpayable",
      "type": "function"
    },
    {
      "inputs": [
        {
          "internalType": "address",
          "name": "account",
          "type": "address"
        }
      ],
      "name": "balanceOf",
      "outputs": [
        {
          "internalType": "uint256",
          "name": "",
          "type": "uint256"
        }
      ],
      "stateMutability": "view",
      "type": "function"
    },
    {
      "inputs": [
        {
          "internalType": "address",
          "name": "",
          "type": "address"
        }
      ],
      "name": "blacklist",
      "outputs": [
        {
          "internalType": "bool",
          "name": "",
          "type": "bool"
        }
      ],
      "stateMutability": "view",
      "type": "function"
    },
    {
      "inputs": [
        {
          "internalType": "uint256",
          "name": "value",
          "type": "uint256"
        }
      ],
      "name": "burn",
      "outputs": [],
      "stateMutability": "nonpayable",
      "type": "function"
    },
    {
      "inputs": [
        {
          "internalType": "address",
          "name": "account",
          "type": "address"
        },
        {
          "internalType": "uint256",
          "name": "value",
          "type": "uint256"
        }
      ],
      "name": "burnFrom",
      "outputs": [],
      "stateMutability": "nonpayable",
      "type": "function"
    },
    {
      "inputs": [],
      "name": "cap",
      "outputs": [
        {
          "internalType": "uint256",
          "name": "",
          "type": "uint256"
        }
      ],
      "stateMutability": "view",
      "type": "function"
    },
    {
      "inputs": [],
      "name": "decimals",
      "outputs": [
        {
          "internalType": "uint8",
          "name": "",
          "type": "uint8"
        }
      ],
      "stateMutability": "view",
      "type": "function"
    },
    {
      "inputs": [],
      "name": "name",
      "outputs": [
        {
          "internalType": "string",
          "name": "",
          "type": "string"
        }
      ],
      "stateMutability": "view",
      "type": "function"
    },
    {
      "inputs": [],
      "name": "owner",
      "outputs": [
        {
          "internalType": "address",
          "name": "",
          "type": "address"
        }
      ],
      "stateMutability": "view",
      "type": "function"
    },
    {
      "inputs": [],
      "name": "renounceOwnership",
      "outputs": [],
      "stateMutability": "nonpayable",
      "type": "function"
    },
    {
      "inputs": [],
      "name": "symbol",
      "outputs": [
        {
          "internalType": "string",
          "name": "",
          "type": "string"
        }
      ],
      "stateMutability": "view",
      "type": "function"
    },
    {
      "inputs": [],
      "name": "totalSupply",
      "outputs": [
        {
          "internalType": "uint256",
          "name": "",
          "type": "uint256"
        }
      ],
      "stateMutability": "view",
      "type": "function"
    },
    {
      "inputs": [
        {
          "internalType": "address",
          "name": "to",
          "type": "address"
        },
        {
          "internalType": "uint256",
          "name": "value",
          "type": "uint256"
        }
      ],
      "name": "transfer",
      "outputs": [
        {
          "internalType": "bool",
          "name": "",
          "type": "bool"
        }
      ],
      "stateMutability": "nonpayable",
      "type": "function"
    },
    {
      "inputs": [
        {
          "internalType": "address",
          "name": "from",
          "type": "address"
        },
        {
          "internalType": "address",
          "name": "to",
          "type": "address"
        },
        {
          "internalType": "uint256",
          "name": "value",
          "type": "uint256"
        }
      ],
      "name": "transferFrom",
      "outputs": [
        {
          "internalType": "bool",
          "name": "",
          "type": "bool"
        }
      ],
      "stateMutability": "nonpayable",
      "type": "function"
    },
    {
      "inputs": [
        {
          "internalType": "address",
          "name": "newOwner",
          "type": "address"
        }
      ],
      "name": "transferOwnership",
      "outputs": [],
      "stateMutability": "nonpayable",
      "type": "function"
    },
    {
      "inputs": [
        {
          "internalType": "address",
          "name": "to",
          "type": "address"
        },
        {
          "internalType": "uint256",
          "name": "amount",
          "type": "uint256"
        }
      ],
      "name": "mint",
      "outputs": [],
      "stateMutability": "nonpayable",
      "type": "function"
    },
    {
      "inputs": [
        {
          "internalType": "address",
          "name": "account",
          "type": "address"
        },
        {
          "internalType": "bool",
          "name": "blacklisted",
          "type": "bool"
        }
      ],
      "name": "updateBlacklist",
      "outputs": [],
      "stateMutability": "nonpayable",
      "type": "function"
    }
  ],
  "bytecode": "0x60a060405234801562000010575f80fd5b50604051620028b8380380620028b8833981810160405281019062000036919062000962565b3382858581600390816200004b919062000c3d565b5080600490816200005d919062000c3d565b5050505f8103620000a7575f6040517f392e1e270000000000000000000000000000000000000000000000000000000081526004016200009e919062000d62565b60405180910390fd5b8060808181525050505f73ffffffffffffffffffffffffffffffffffffffff168173ffffffffffffffffffffffffffffffffffffffff160362000123575f6040517f1e4fbdf70000000000000000000000000000000000000000000000000000000081526004016200011a919062000dc0565b60405180910390fd5b62000134816200019760201b60201c565b50818111156200017b576040517f08c379a0000000000000000000000000000000000000000000000000000000008152600401620001729062000e39565b60405180910390fd5b6200018d33826200025a60201b60201c565b505050506200107a565b5f60055f9054906101000a900473ffffffffffffffffffffffffffffffffffffffff1690508160055f6101000a81548173ffffffffffffffffffffffffffffffffffffffff021916908373ffffffffffffffffffffffffffffffffffffffff1602179055508173ffffffffffffffffffffffffffffffffffffffff168173ffffffffffffffffffffffffffffffffffffffff167f8be0079c531659141344cd1fd0a4f28419497f9722a3daafe3b4186f6b6457e060405160405180910390a35050565b5f73ffffffffffffffffffffffffffffffffffffffff168273ffffffffffffffffffffffffffffffffffffffff1603620002cd575f6040517fec442f05000000000000000000000000000000000000000000000000000000008152600401620002c4919062000dc0565b60405180910390fd5b620002e05f8383620002e460201b60201c565b5050565b60075f8473ffffffffffffffffffffffffffffffffffffffff1673ffffffffffffffffffffffffffffffffffffffff1681526020019081526020015f205f9054906101000a900460ff1615801562000383575060075f8373ffffffffffffffffffffffffffffffffffffffff1673ffffffffffffffffffffffffffffffffffffffff1681526020019081526020015f205f9054906101000a900460ff16155b620003c5576040517f08c379a0000000000000000000000000000000000000000000000000000000008152600401620003bc9062000ecd565b60405180910390fd5b603c60065f8573ffffffffffffffffffffffffffffffffffffffff1673ffffffffffffffffffffffffffffffffffffffff1681526020019081526020015f205462000411919062000f1a565b42101562000456576040517f08c379a00000000000000000000000000000000000000000000000000000000081526004016200044d9062000fc8565b60405180910390fd5b4260065f8573ffffffffffffffffffffffffffffffffffffffff1673ffffffffffffffffffffffffffffffffffffffff1681526020019081526020015f2081905550620004ab838383620004b060201b60201c565b505050565b620004c38383836200056f60201b60201c565b5f73ffffffffffffffffffffffffffffffffffffffff168373ffffffffffffffffffffffffffffffffffffffff16036200056a575f620005086200079360201b60201c565b90505f6200051b6200079c60201b60201c565b905081811115620005675780826040517f9e79f8540000000000000000000000000000000000000000000000000000000081526004016200055e92919062000ff9565b60405180910390fd5b50505b505050565b5f73ffffffffffffffffffffffffffffffffffffffff168373ffffffffffffffffffffffffffffffffffffffff1603620005c3578060025f828254620005b6919062000f1a565b9250508190555062000694565b5f805f8573ffffffffffffffffffffffffffffffffffffffff1673ffffffffffffffffffffffffffffffffffffffff1681526020019081526020015f20549050818110156200064f578381836040517fe450d38c000000000000000000000000000000000000000000000000000000008152600401620006469392919062001024565b60405180910390fd5b8181035f808673ffffffffffffffffffffffffffffffffffffffff1673ffffffffffffffffffffffffffffffffffffffff1681526020019081526020015f2081905550505b5f73ffffffffffffffffffffffffffffffffffffffff168273ffffffffffffffffffffffffffffffffffffffff1603620006dd578060025f828254039250508190555062000727565b805f808473ffffffffffffffffffffffffffffffffffffffff1673ffffffffffffffffffffffffffffffffffffffff1681526020019081526020015f205f82825401925050819055505b8173ffffffffffffffffffffffffffffffffffffffff168373ffffffffffffffffffffffffffffffffffffffff167fddf252ad1be2c89b69c2b068fc378daa952ba7f163c4a11628f55a4df523b3ef836040516200078691906200105f565b60405180910390a3505050565b5f608051905090565b5f600254905090565b5f604051905090565b5f80fd5b5f80fd5b5f80fd5b5f80fd5b5f601f19601f8301169050919050565b7f4e487b71000000000000000000000000000000000000000000000000000000005f52604160045260245ffd5b6200080682620007be565b810181811067ffffffffffffffff82111715620008285762000827620007ce565b5b80604052505050565b5f6200083c620007a5565b90506200084a8282620007fb565b919050565b5f67ffffffffffffffff8211156200086c576200086b620007ce565b5b6200087782620007be565b9050602081019050919050565b5f5b83811015620008a357808201518184015260208101905062000886565b5f8484015250505050565b5f620008c4620008be846200084f565b62000831565b905082815260208101848484011115620008e357620008e2620007ba565b5b620008f084828562000884565b509392505050565b5f82601f8301126200090f576200090e620007b6565b5b815162000921848260208601620008ae565b91505092915050565b5f819050919050565b6200093e816200092a565b811462000949575f80fd5b50565b5f815190506200095c8162000933565b92915050565b5f805f80608085870312156200097d576200097c620007ae565b5b5f85015167ffffffffffffffff8111156200099d576200099c620007b2565b5b620009ab87828801620008f8565b945050602085015167ffffffffffffffff811115620009cf57620009ce620007b2565b5b620009dd87828801620008f8565b9350506040620009f0878288016200094c565b925050606062000a03878288016200094c565b91505092959194509250565b5f81519050919050565b7f4e487b71000000000000000000000000000000000000000000000000000000005f52602260045260245ffd5b5f600282049050600182168062000a5e57607f821691505b60208210810362000a745762000a7362000a19565b5b50919050565b5f819050815f5260205f209050919050565b5f6020601f8301049050919050565b5f82821b905092915050565b5f6008830262000ad87fffffffffffffffffffffffffffffffffffffffffffffffffffffffffffffffff8262000a9b565b62000ae4868362000a9b565b95508019841693508086168417925050509392505050565b5f819050919050565b5f62000b2562000b1f62000b19846200092a565b62000afc565b6200092a565b9050919050565b5f819050919050565b62000b408362000b05565b62000b5862000b4f8262000b2c565b84845462000aa7565b825550505050565b5f90565b62000b6e62000b60565b62000b7b81848462000b35565b505050565b5b8181101562000ba25762000b965f8262000b64565b60018101905062000b81565b5050565b601f82111562000bf15762000bbb8162000a7a565b62000bc68462000a8c565b8101602085101562000bd6578190505b62000bee62000be58562000a8c565b83018262000b80565b50505b505050565b5f82821c905092915050565b5f62000c135f198460080262000bf6565b1980831691505092915050565b5f62000c2d838362000c02565b9150826002028217905092915050565b62000c488262000a0f565b67ffffffffffffffff81111562000c645762000c63620007ce565b5b62000c70825462000a46565b62000c7d82828562000ba6565b5f60209050601f83116001811462000cb3575f841562000c9e578287015190505b62000caa858262000c20565b86555062000d19565b601f19841662000cc38662000a7a565b5f5b8281101562000cec5784890151825560018201915060208501945060208101905062000cc5565b8683101562000d0c578489015162000d08601f89168262000c02565b8355505b6001600288020188555050505b505050505050565b5f819050919050565b5f62000d4a62000d4462000d3e8462000d21565b62000afc565b6200092a565b9050919050565b62000d5c8162000d2a565b82525050565b5f60208201905062000d775f83018462000d51565b92915050565b5f73ffffffffffffffffffffffffffffffffffffffff82169050919050565b5f62000da88262000d7d565b9050919050565b62000dba8162000d9c565b82525050565b5f60208201905062000dd55f83018462000daf565b92915050565b5f82825260208201905092915050565b7f496e697469616c20737570706c792065786365656473206361700000000000005f82015250565b5f62000e21601a8362000ddb565b915062000e2e8262000deb565b602082019050919050565b5f6020820190508181035f83015262000e528162000e13565b9050919050565b7f5472616e736665722072656a65637465643a20426c61636b6c697374656420615f8201527f6464726573730000000000000000000000000000000000000000000000000000602082015250565b5f62000eb560268362000ddb565b915062000ec28262000e59565b604082019050919050565b5f6020820190508181035f83015262000ee68162000ea7565b9050919050565b7f4e487b71000000000000000000000000000000000000000000000000000000005f52601160045260245ffd5b5f62000f26826200092a565b915062000f33836200092a565b925082820190508082111562000f4e5762000f4d62000eed565b5b92915050565b7f5472616e736665722072656a65637465643a20436f6f6c646f776e20706572695f8201527f6f64000000000000000000000000000000000000000000000000000000000000602082015250565b5f62000fb060228362000ddb565b915062000fbd8262000f54565b604082019050919050565b5f6020820190508181035f83015262000fe18162000fa2565b9050919050565b62000ff3816200092a565b82525050565b5f6040820190506200100e5f83018562000fe8565b6200101d602083018462000fe8565b9392505050565b5f606082019050620010395f83018662000daf565b62001048602083018562000fe8565b62001057604083018462000fe8565b949350505050565b5f602082019050620010745f83018462000fe8565b92915050565b608051611825620010935f395f61049f01526118255ff3fe608060405234801561000f575f80fd5b506004361061011f575f3560e01c8063715018a6116100ab57806395d89b411161006f57806395d89b41146102e1578063a9059cbb146102ff578063dd62ed3e1461032f578063f2fde38b1461035f578063f9f92be41461037b5761011f565b8063715018a61461026357806379cc67901461026d5780637a4a3412146102895780638da5cb5b146102a75780639155e083146102c55761011f565b8063313ce567116100f2578063313ce567146101bf578063355274ea146101dd57806340c10f19146101fb57806342966c681461021757806370a08231146102335761011f565b806306fdde0314610123578063095ea7b31461014157806318160ddd1461017157806323b872dd1461018f575b5f80fd5b61012b6103ab565b60405161013891906112c8565b60405180910390f35b61015b60048036038101906101569190611379565b61043b565b60405161016891906113d1565b60405180910390f35b61017961045d565b60405161018691906113f9565b60405180910390f35b6101a960048036038101906101a49190611412565b610466565b6040516101b691906113d1565b60405180910390f35b6101c7610494565b6040516101d4919061147d565b60405180910390f35b6101e561049c565b6040516101f291906113f9565b60405180910390f35b61021560048036038101906102109190611379565b6104c3565b005b610231600480360381019061022c9190611496565b6104d9565b005b61024d600480360381019061024891906114c1565b6104ed565b60405161025a91906113f9565b60405180910390f35b61026b610532565b005b61028760048036038101906102829190611379565b610545565b005b610291610565565b60405161029e91906113f9565b60405180910390f35b6102af61056a565b6040516102bc91906114fb565b60405180910390f35b6102df60048036038101906102da919061153e565b610592565b005b6102e9610640565b6040516102f691906112c8565b60405180910390f35b61031960048036038101906103149190611379565b6106d0565b60405161032691906113d1565b60405180910390f35b6103496004803603810190610344919061157c565b6106f2565b60405161035691906113f9565b60405180910390f35b610379600480360381019061037491906114c1565b610774565b005b610395600480360381019061039091906114c1565b6107f8565b6040516103a291906113d1565b60405180910390f35b6060600380546103ba906115e7565b80601f01602080910402602001604051908101604052809291908181526020018280546103e6906115e7565b80156104315780601f1061040857610100808354040283529160200191610431565b820191905f5260205f20905b81548152906001019060200180831161041457829003601f168201915b5050505050905090565b5f80610445610815565b905061045281858561081c565b600191505092915050565b5f600254905090565b5f80610470610815565b905061047d85828561082e565b6104888585856108c0565b60019150509392505050565b5f6012905090565b5f7f0000000000000000000000000000000000000000000000000000000000000000905090565b6104cb6109b0565b6104d58282610a37565b5050565b6104ea6104e4610815565b82610ab6565b50565b5f805f8373ffffffffffffffffffffffffffffffffffffffff1673ffffffffffffffffffffffffffffffffffffffff1681526020019081526020015f20549050919050565b61053a6109b0565b6105435f610b35565b565b61055782610551610815565b8361082e565b6105618282610ab6565b5050565b603c81565b5f60055f9054906101000a900473ffffffffffffffffffffffffffffffffffffffff16905090565b61059a6109b0565b8060075f8473ffffffffffffffffffffffffffffffffffffffff1673ffffffffffffffffffffffffffffffffffffffff1681526020019081526020015f205f6101000a81548160ff0219169083151502179055508173ffffffffffffffffffffffffffffffffffffffff167f6a12b3df6cba4203bd7fd06b816789f87de8c594299aed5717ae070fac781bac8260405161063491906113d1565b60405180910390a25050565b60606004805461064f906115e7565b80601f016020809104026020016040519081016040528092919081815260200182805461067b906115e7565b80156106c65780601f1061069d576101008083540402835291602001916106c6565b820191905f5260205f20905b8154815290600101906020018083116106a957829003601f168201915b5050505050905090565b5f806106da610815565b90506106e78185856108c0565b600191505092915050565b5f60015f8473ffffffffffffffffffffffffffffffffffffffff1673ffffffffffffffffffffffffffffffffffffffff1681526020019081526020015f205f8373ffffffffffffffffffffffffffffffffffffffff1673ffffffffffffffffffffffffffffffffffffffff1681526020019081526020015f2054905092915050565b61077c6109b0565b5f73ffffffffffffffffffffffffffffffffffffffff168173ffffffffffffffffffffffffffffffffffffffff16036107ec575f6040517f1e4fbdf70000000000000000000000000000000000000000000000000000000081526004016107e391906114fb565b60405180910390fd5b6107f581610b35565b50565b6007602052805f5260405f205f915054906101000a900460ff1681565b5f33905090565b6108298383836001610bf8565b505050565b5f61083984846106f2565b90507fffffffffffffffffffffffffffffffffffffffffffffffffffffffffffffffff81146108ba57818110156108ab578281836040517ffb8f41b20000000000000000000000000000000000000000000000000000000081526004016108a293929190611617565b60405180910390fd5b6108b984848484035f610bf8565b5b50505050565b5f73ffffffffffffffffffffffffffffffffffffffff168373ffffffffffffffffffffffffffffffffffffffff1603610930575f6040517f96c6fd1e00000000000000000000000000000000000000000000000000000000815260040161092791906114fb565b60405180910390fd5b5f73ffffffffffffffffffffffffffffffffffffffff168273ffffffffffffffffffffffffffffffffffffffff16036109a0575f6040517fec442f0500000000000000000000000000000000000000000000000000000000815260040161099791906114fb565b60405180910390fd5b6109ab838383610dc7565b505050565b6109b8610815565b73ffffffffffffffffffffffffffffffffffffffff166109d661056a565b73ffffffffffffffffffffffffffffffffffffffff1614610a35576109f9610815565b6040517f118cdaa7000000000000000000000000000000000000000000000000000000008152600401610a2c91906114fb565b60405180910390fd5b565b5f73ffffffffffffffffffffffffffffffffffffffff168273ffffffffffffffffffffffffffffffffffffffff1603610aa7575f6040517fec442f05000000000000000000000000000000000000000000000000000000008152600401610a9e91906114fb565b60405180910390fd5b610ab25f8383610dc7565b5050565b5f73ffffffffffffffffffffffffffffffffffffffff168273ffffffffffffffffffffffffffffffffffffffff1603610b26575f6040517f96c6fd1e000000000000000000000000000000000000000000000000000000008152600401610b1d91906114fb565b60405180910390fd5b610b31825f83610dc7565b5050565b5f60055f9054906101000a900473ffffffffffffffffffffffffffffffffffffffff1690508160055f6101000a81548173ffffffffffffffffffffffffffffffffffffffff021916908373ffffffffffffffffffffffffffffffffffffffff1602179055508173ffffffffffffffffffffffffffffffffffffffff168173ffffffffffffffffffffffffffffffffffffffff167f8be0079c531659141344cd1fd0a4f28419497f9722a3daafe3b4186f6b6457e060405160405180910390a35050565b5f73ffffffffffffffffffffffffffffffffffffffff168473ffffffffffffffffffffffffffffffffffffffff1603610c68575f6040517fe602df05000000000000000000000000000000000000000000000000000000008152600401610c5f91906114fb565b60405180910390fd5b5f73ffffffffffffffffffffffffffffffffffffffff168373ffffffffffffffffffffffffffffffffffffffff1603610cd8575f6040517f94280d62000000000000000000000000000000000000000000000000000000008152600401610ccf91906114fb565b60405180910390fd5b8160015f8673ffffffffffffffffffffffffffffffffffffffff1673ffffffffffffffffffffffffffffffffffffffff1681526020019081526020015f205f8573ffffffffffffffffffffffffffffffffffffffff1673ffffffffffffffffffffffffffffffffffffffff1681526020019081526020015f20819055508015610dc1578273ffffffffffffffffffffffffffffffffffffffff168473ffffffffffffffffffffffffffffffffffffffff167f8c5be1e5ebec7d5bd14f71427d1e84f3dd0314c0f7b2291e5b200ac8c7c3b92584604051610db891906113f9565b60405180910390a35b50505050565b60075f8473ffffffffffffffffffffffffffffffffffffffff1673ffffffffffffffffffffffffffffffffffffffff1681526020019081526020015f205f9054906101000a900460ff16158015610e65575060075f8373ffffffffffffffffffffffffffffffffffffffff1673ffffffffffffffffffffffffffffffffffffffff1681526020019081526020015f205f9054906101000a900460ff16155b610ea4576040517f08c379a0000000000000000000000000000000000000000000000000000000008152600401610e9b906116bc565b60405180910390fd5b603c60065f8573ffffffffffffffffffffffffffffffffffffffff1673ffffffffffffffffffffffffffffffffffffffff1681526020019081526020015f2054610eee9190611707565b421015610f30576040517f08c379a0000000000000000000000000000000000000000000000000000000008152600401610f27906117aa565b60405180910390fd5b4260065f8573ffffffffffffffffffffffffffffffffffffffff1673ffffffffffffffffffffffffffffffffffffffff1681526020019081526020015f2081905550610f7d838383610f82565b505050565b610f8d838383611025565b5f73ffffffffffffffffffffffffffffffffffffffff168373ffffffffffffffffffffffffffffffffffffffff1603611020575f610fc961049c565b90505f610fd461045d565b90508181111561101d5780826040517f9e79f8540000000000000000000000000000000000000000000000000000000081526004016110149291906117c8565b60405180910390fd5b50505b505050565b5f73ffffffffffffffffffffffffffffffffffffffff168373ffffffffffffffffffffffffffffffffffffffff1603611075578060025f8282546110699190611707565b92505081905550611143565b5f805f8573ffffffffffffffffffffffffffffffffffffffff1673ffffffffffffffffffffffffffffffffffffffff1681526020019081526020015f20549050818110156110fe578381836040517fe450d38c0000000000000000000000000000000000000000000000000000000081526004016110f593929190611617565b60405180910390fd5b8181035f808673ffffffffffffffffffffffffffffffffffffffff1673ffffffffffffffffffffffffffffffffffffffff1681526020019081526020015f2081905550505b5f73ffffffffffffffffffffffffffffffffffffffff168273ffffffffffffffffffffffffffffffffffffffff160361118a578060025f82825403925050819055506111d4565b805f808473ffffffffffffffffffffffffffffffffffffffff1673ffffffffffffffffffffffffffffffffffffffff1681526020019081526020015f205f82825401925050819055505b8173ffffffffffffffffffffffffffffffffffffffff168373ffffffffffffffffffffffffffffffffffffffff167fddf252ad1be2c89b69c2b068fc378daa952ba7f163c4a11628f55a4df523b3ef8360405161123191906113f9565b60405180910390a3505050565b5f81519050919050565b5f82825260208201905092915050565b5f5b8381101561127557808201518184015260208101905061125a565b5f8484015250505050565b5f601f19601f8301169050919050565b5f61129a8261123e565b6112a48185611248565b93506112b4818560208601611258565b6112bd81611280565b840191505092915050565b5f6020820190508181035f8301526112e08184611290565b905092915050565b5f80fd5b5f73ffffffffffffffffffffffffffffffffffffffff82169050919050565b5f611315826112ec565b9050919050565b6113258161130b565b811461132f575f80fd5b50565b5f813590506113408161131c565b92915050565b5f819050919050565b61135881611346565b8114611362575f80fd5b50565b5f813590506113738161134f565b92915050565b5f806040838503121561138f5761138e6112e8565b5b5f61139c85828601611332565b92505060206113ad85828601611365565b9150509250929050565b5f8115159050919050565b6113cb816113b7565b82525050565b5f6020820190506113e45f8301846113c2565b92915050565b6113f381611346565b82525050565b5f60208201905061140c5f8301846113ea565b92915050565b5f805f60608486031215611429576114286112e8565b5b5f61143686828701611332565b935050602061144786828701611332565b925050604061145886828701611365565b9150509250925092565b5f60ff82169050919050565b61147781611462565b82525050565b5f6020820190506114905f83018461146e565b92915050565b5f602082840312156114ab576114aa6112e8565b5b5f6114b884828501611365565b91505092915050565b5f602082840312156114d6576114d56112e8565b5b5f6114e384828501611332565b91505092915050565b6114f58161130b565b82525050565b5f60208201905061150e5f8301846114ec565b92915050565b61151d816113b7565b8114611527575f80fd5b50565b5f8135905061153881611514565b92915050565b5f8060408385031215611554576115536112e8565b5b5f61156185828601611332565b92505060206115728582860161152a565b9150509250929050565b5f8060408385031215611592576115916112e8565b5b5f61159f85828601611332565b92505060206115b085828601611332565b9150509250929050565b7f4e487b71000000000000000000000000000000000000000000000000000000005f52602260045260245ffd5b5f60028204905060018216806115fe57607f821691505b602082108103611611576116106115ba565b5b50919050565b5f60608201905061162a5f8301866114ec565b61163760208301856113ea565b61164460408301846113ea565b949350505050565b7f5472616e736665722072656a65637465643a20426c61636b6c697374656420615f8201527f6464726573730000000000000000000000000000000000000000000000000000602082015250565b5f6116a6602683611248565b91506116b18261164c565b604082019050919050565b5f6020820190508181035f8301526116d38161169a565b9050919050565b7f4e487b71000000000000000000000000000000000000000000000000000000005f52601160045260245ffd5b5f61171182611346565b915061171c83611346565b9250828201905080821115611734576117336116da565b5b92915050565b7f5472616e736665722072656a65637465643a20436f6f6c646f776e20706572695f8201527f6f64000000000000000000000000000000000000000000000000000000000000602082015250565b5f611794602283611248565b915061179f8261173a565b604082019050919050565b5f6020820190508181035f8301526117c181611788565b9050919050565b5f6040820190506117db5f8301856113ea565b6117e860208301846113ea565b939250505056fea2646970667358221220e1f13533135bca73f615f94caf2c117e7da29b3d86bedefcfa41ec0d9f0100a764736f6c63430008150033",
  "immutableReferences": {
    "932": [
      {
        "length": 32,
        "start": 1183
      }
    ]
  },
  "source": "// SPDX-License-Identifier: MIT\npragma solidity ^0.8.0;\n\nimport \"@openzeppelin/contracts/token/ERC20/ERC20.sol\";\nimport \"@openzeppelin/contracts/token/ERC20/extensions/ERC20Capped.sol\";\nimport \"@openzeppelin/contracts/token/ERC20/extensions/ERC20Burnable.sol\";\n// import \"@openzeppelin/contracts/security/Pausable.sol\";\nimport \"@openzeppelin/contracts/access/Ownable.sol\";\n\n/// @title EnhancedToken - An ERC20 token with additional features\n/// @author Your Name\n/// @notice This contract implements an ERC20 token with capped supply, burning, pausing, and blacklisting capabilities\n/// @dev Inherits from ERC20Capped, ERC20Burnable, Pausable, and Ownable\ncontract EnhancedToken is ERC20Capped, ERC20Burnable, Ownable {\n    /// @notice The cooldown period between transfers for each address\n    uint256 public constant TRANSFER_COOLDOWN = 1 minutes;\n\n    /// @notice Mapping to store the last transfer timestamp for each address\n    mapping(address => uint256) private _lastTransferTimestamp;\n    \n    /// @notice Mapping to store blacklist status of addresses\n    mapping(address => bool) public blacklist;\n\n    /// @notice Emitted when an address is added to or removed from the blacklist\n    /// @param account The address whose blacklist status was updated\n    /// @param blacklisted The new blacklist status of the address\n    event BlacklistUpdated(address indexed account, bool blacklisted);\n\n    /// @notice Constructs the EnhancedToken contract\n    /// @dev Mints the initial supply to the contract deployer\n    /// @param name The name of the token\n    /// @param symbol The symbol of the token\n    /// @param cap The maximum cap on the token's total supply\n    /// @param initialSupply The initial supply of tokens to mint\n    constructor(string memory name, string memory symbol, uint256 cap, uint256 initialSupply) \n        ERC20(name, symbol)\n        ERC20Capped(cap)\n        Ownable(msg.sender)\n    {\n        require(initialSupply <= cap, \"Initial supply exceeds cap\");\n        _mint(msg.sender, initialSupply);\n    }\n\n    /// @notice Mints new tokens\n    /// @dev Only the owner can mint new tokens, and the total supply cannot exceed the cap\n    /// @param to The address that will receive the minted tokens\n    /// @param amount The amount of tokens to mint\n    function mint(address to, uint256 amount) public onlyOwner {\n        _mint(to, amount);\n    }\n\n    /// @notice Internal function to mint tokens\n    /// @dev Overrides _mint from ERC20 and ERC20Capped to ensure the cap is respected\n    /// @param account The address that will receive the minted tokens\n    /// @param amount The amount of tokens to mint\n    // function _mint(address account, uint256 amount) internal override {\n    //     super._mint(account, amount);\n    // }\n\n    /// @notice Pauses all token transfers\n    /// @dev Only the owner can pause the contract\n    // function pause() public onlyOwner {\n    //     _pause();\n    // }\n\n    /// @notice Unpauses all token transfers\n    /// @dev Only the owner can unpause the contract\n    // function unpause() public onlyOwner {\n    //     _unpause();\n    // }\n\n    /// @notice Updates the blacklist status of an address\n    /// @dev Only the owner can update the blacklist\n    /// @param account The address to update\n    /// @param blacklisted The new blacklist status\n    function updateBlacklist(address account, bool blacklisted) public onlyOwner {\n        blacklist[account] = blacklisted;\n        emit BlacklistUpdated(account, blacklisted);\n    }\n\n    /// @notice Internal function to update balances and total supply\n    /// @dev Overrides _update from ERC20 to add transfer restrictions\n    /// @param from The address to transfer from\n    /// @param to The address to transfer to\n    /// @param amount The amount of tokens to transfer\n    function _update(address from, address to, uint256 amount) internal override(ERC20,ERC20Capped){\n        require(!blacklist[from] && !blacklist[to], \"Transfer rejected: Blacklisted address\");\n        require(block.timestamp >= _lastTransferTimestamp[from] + TRANSFER_COOLDOWN, \"Transfer rejected: Cooldown period\");\n        _lastTransferTimestamp[from] = block.timestamp;\n        super._update(from, to, amount);\n    }\n}",
  "sourcePath": "/home/amit/test_marketNode/backend/contracts/EnhancedToken.sol",
  "compiler": {
    "name": "solc",
    "version": "0.8.21+commit.d9974bed.Emscripten.clang"
  },
  "schemaVersion": "3.4.16",
  "updatedAt": "2024-07-13T22:25:26.130Z",
  "devdoc": {
    "author": "Your Name",
    "details": "Inherits from ERC20Capped, ERC20Burnable, Pausable, and Ownable",
    "errors": {
      "ERC20ExceededCap(uint256,uint256)": [
        {
          "details": "Total supply cap has been exceeded."
        }
      ],
      "ERC20InsufficientAllowance(address,uint256,uint256)": [
        {
          "details": "Indicates a failure with the `spender`s `allowance`. Used in transfers.",
          "params": {
            "allowance": "Amount of tokens a `spender` is allowed to operate with.",
            "needed": "Minimum amount required to perform a transfer.",
            "spender": "Address that may be allowed to operate on tokens without being their owner."
          }
        }
      ],
      "ERC20InsufficientBalance(address,uint256,uint256)": [
        {
          "details": "Indicates an error related to the current `balance` of a `sender`. Used in transfers.",
          "params": {
            "balance": "Current balance for the interacting account.",
            "needed": "Minimum amount required to perform a transfer.",
            "sender": "Address whose tokens are being transferred."
          }
        }
      ],
      "ERC20InvalidApprover(address)": [
        {
          "details": "Indicates a failure with the `approver` of a token to be approved. Used in approvals.",
          "params": {
            "approver": "Address initiating an approval operation."
          }
        }
      ],
      "ERC20InvalidCap(uint256)": [
        {
          "details": "The supplied cap is not a valid cap."
        }
      ],
      "ERC20InvalidReceiver(address)": [
        {
          "details": "Indicates a failure with the token `receiver`. Used in transfers.",
          "params": {
            "receiver": "Address to which tokens are being transferred."
          }
        }
      ],
      "ERC20InvalidSender(address)": [
        {
          "details": "Indicates a failure with the token `sender`. Used in transfers.",
          "params": {
            "sender": "Address whose tokens are being transferred."
          }
        }
      ],
      "ERC20InvalidSpender(address)": [
        {
          "details": "Indicates a failure with the `spender` to be approved. Used in approvals.",
          "params": {
            "spender": "Address that may be allowed to operate on tokens without being their owner."
          }
        }
      ],
      "OwnableInvalidOwner(address)": [
        {
          "details": "The owner is not a valid owner account. (eg. `address(0)`)"
        }
      ],
      "OwnableUnauthorizedAccount(address)": [
        {
          "details": "The caller account is not authorized to perform an operation."
        }
      ]
    },
    "events": {
      "Approval(address,address,uint256)": {
        "details": "Emitted when the allowance of a `spender` for an `owner` is set by a call to {approve}. `value` is the new allowance."
      },
      "BlacklistUpdated(address,bool)": {
        "params": {
          "account": "The address whose blacklist status was updated",
          "blacklisted": "The new blacklist status of the address"
        }
      },
      "Transfer(address,address,uint256)": {
        "details": "Emitted when `value` tokens are moved from one account (`from`) to another (`to`). Note that `value` may be zero."
      }
    },
    "kind": "dev",
    "methods": {
      "allowance(address,address)": {
        "details": "See {IERC20-allowance}."
      },
      "approve(address,uint256)": {
        "details": "See {IERC20-approve}. NOTE: If `value` is the maximum `uint256`, the allowance is not updated on `transferFrom`. This is semantically equivalent to an infinite approval. Requirements: - `spender` cannot be the zero address."
      },
      "balanceOf(address)": {
        "details": "See {IERC20-balanceOf}."
      },
      "burn(uint256)": {
        "details": "Destroys a `value` amount of tokens from the caller. See {ERC20-_burn}."
      },
      "burnFrom(address,uint256)": {
        "details": "Destroys a `value` amount of tokens from `account`, deducting from the caller's allowance. See {ERC20-_burn} and {ERC20-allowance}. Requirements: - the caller must have allowance for ``accounts``'s tokens of at least `value`."
      },
      "cap()": {
        "details": "Returns the cap on the token's total supply."
      },
      "constructor": {
        "details": "Mints the initial supply to the contract deployer",
        "params": {
          "cap": "The maximum cap on the token's total supply",
          "initialSupply": "The initial supply of tokens to mint",
          "name": "The name of the token",
          "symbol": "The symbol of the token"
        }
      },
      "decimals()": {
        "details": "Returns the number of decimals used to get its user representation. For example, if `decimals` equals `2`, a balance of `505` tokens should be displayed to a user as `5.05` (`505 / 10 ** 2`). Tokens usually opt for a value of 18, imitating the relationship between Ether and Wei. This is the default value returned by this function, unless it's overridden. NOTE: This information is only used for _display_ purposes: it in no way affects any of the arithmetic of the contract, including {IERC20-balanceOf} and {IERC20-transfer}."
      },
      "mint(address,uint256)": {
        "details": "Only the owner can mint new tokens, and the total supply cannot exceed the cap",
        "params": {
          "amount": "The amount of tokens to mint",
          "to": "The address that will receive the minted tokens"
        }
      },
      "name()": {
        "details": "Returns the name of the token."
      },
      "owner()": {
        "details": "Returns the address of the current owner."
      },
      "renounceOwnership()": {
        "details": "Leaves the contract without owner. It will not be possible to call `onlyOwner` functions. Can only be called by the current owner. NOTE: Renouncing ownership will leave the contract without an owner, thereby disabling any functionality that is only available to the owner."
      },
      "symbol()": {
        "details": "Returns the symbol of the token, usually a shorter version of the name."
      },
      "totalSupply()": {
        "details": "See {IERC20-totalSupply}."
      },
      "transfer(address,uint256)": {
        "details": "See {IERC20-transfer}. Requirements: - `to` cannot be the zero address. - the caller must have a balance of at least `value`."
      },
      "transferFrom(address,address,uint256)": {
        "details": "See {IERC20-transferFrom}. Emits an {Approval} event indicating the updated allowance. This is not required by the EIP. See the note at the beginning of {ERC20}. NOTE: Does not update the allowance if the current allowance is the maximum `uint256`. Requirements: - `from` and `to` cannot be the zero address. - `from` must have a balance of at least `value`. - the caller must have allowance for ``from``'s tokens of at least `value`."
      },
      "transferOwnership(address)": {
        "details": "Transfers ownership of the contract to a new account (`newOwner`). Can only be called by the current owner."
      },
      "updateBlacklist(address,bool)": {
        "details": "Only the owner can update the blacklist",
        "params": {
          "account": "The address to update",
          "blacklisted": "The new blacklist status"
        }
      }
    },
    "title": "EnhancedToken - An ERC20 token with additional features",
    "version": 1
  },
  "userdoc": {
    "events": {
      "BlacklistUpdated(address,bool)": {
        "notice": "Emitted when an address is added to or removed from the blacklist"
      }
    },
    "kind": "user",
    "methods": {
      "TRANSFER_COOLDOWN()": {
        "notice": "The cooldown period between transfers for each address"
      },
      "blacklist(address)": {
        "notice": "Mapping to store blacklist status of addresses"
      },
      "constructor": {
        "notice": "Constructs the EnhancedToken contract"
      },
      "mint(address,uint256)": {
        "notice": "Mints new tokens"
      },
      "updateBlacklist(address,bool)": {
        "notice": "Updates the blacklist status of an address"
      }
    },
    "notice": "This contract implements an ERC20 token with capped supply, burning, pausing, and blacklisting capabilities",
    "version": 1
  }
}